:100000000C945D000C9485000C9485000C94850084
:100010000C9485000C9485000C9485000C9485004C
:100020000C9485000C9485000C9485000C9485003C
:100030000C9485000C9485000C9485000C9485002C
:100040000C948C030C9485000C94FC030C94D60344
:100050000C9485000C9485000C9485000C9485000C
:100060000C9485000C94850000000008000201003B
:100070000003040700000000000000000000000072
:10008000250028002B0000000000240027002A0083
:10009000040404040404040402020202020203032E
:1000A0000303030301020408102040800102040836
:1000B00010200102040810204D0411241FBECFEFB0
:1000C000D8E0DEBFCDBF11E0A0E0B1E0ECE8FBE09E
:1000D00002C005900D92AA3CB107D9F722E0AAEC24
:1000E000B1E001C01D92A83CB207E1F710E0CDE5F8
:1000F000D0E004C02197FE010E94BE05CC35D10797
:10010000C9F70E94FE040C94C4050C94000090E012
:10011000FC01E859FF4F2491FC01EC55FF4F34914D
:10012000FC01E057FF4FE491EE23C9F0222339F0A0
:10013000233001F1A8F4213019F1223029F1F0E047
:10014000EE0FFF1FE458FF4FA591B4918FB7F894BD
:10015000EC91611126C030953E233C938FBF0895EA
:100160002730A9F02830C9F0243049F78091800069
:100170008F7D03C0809180008F7780938000DFCFD8
:1001800084B58F7784BDDBCF84B58F7DFBCF809125
:10019000B0008F778093B000D2CF8091B0008F7D78
:1001A000F9CF3E2BDACF3FB7F8948091CF019091F1
:1001B000D001A091D101B091D20126B5A89B05C074
:1001C0002F3F19F00196A11DB11D3FBFBA2FA92FD6
:1001D000982F8827BC01CD01620F711D811D911DD3
:1001E00042E0660F771F881F991F4A95D1F708953F
:1001F0008F929F92AF92BF92CF92DF92EF92FF9237
:100200000E94D3004B015C0188EBC82E8BE0D82EF6
:10021000E12CF12C0E94D300681979098A099B0905
:10022000683E734081059105A8F321E0C21AD10808
:10023000E108F10888EE880E83E0981EA11CB11C2D
:10024000C114D104E104F10429F7FF90EF90DF908D
:10025000CF90BF90AF909F908F900895AF92BF9234
:10026000CF92DF92EF92FF920F931F93CF93DF9382
:100270006C017B018B01040F151FEB015E01AE18B1
:10028000BF08C017D10759F06991D601ED91FC91D3
:100290000190F081E02DC6010995892B79F7C50100
:1002A000DF91CF911F910F91FF90EF90DF90CF9052
:1002B000BF90AF900895FC01538D448D252F30E001
:1002C000842F90E0821B930B541710F0CF96089563
:1002D00001970895FC01918D828D981761F0A28D90
:1002E000AE0FBF2FB11D5D968C91928D9F5F9F7356
:1002F000928F90E008958FEF9FEF0895FC01918D0C
:10030000828D981731F0828DE80FF11D858D90E078
:1003100008958FEF9FEF0895FC01918D228D892F15
:1003200090E0805C9F4F821B91098F7399270895FD
:1003300083ED91E00E948C0121E0892B09F420E0FB
:10034000822F089580E090E0892B29F00E94980187
:1003500081110C9400000895FC01A48DA80FB92F01
:10036000B11DA35ABF4F2C91848D90E001968F73DD
:100370009927848FA689B7892C93A089B1898C91FC
:10038000837080648C93938D848D981306C002884B
:10039000F389E02D80818F7D80830895EF92FF9215
:1003A0000F931F93CF93DF93EC0181E0888F9B8D98
:1003B0008C8D98131AC0E889F989808185FF15C052
:1003C0009FB7F894EE89FF896083E889F989808175
:1003D0008370806480839FBF81E090E0DF91CF9144
:1003E0001F910F91FF90EF900895F62E0B8D10E066
:1003F0000F5F1F4F0F731127E02E8C8D8E110CC0D5
:100400000FB607FCFACFE889F989808185FFF5CF1F
:10041000CE010E94AC01F1CFEB8DEC0FFD2FF11D51
:10042000E35AFF4FF0829FB7F8940B8FEA89FB895C
:1004300080818062CFCFCF93DF93EC01888D8823BA
:10044000B9F0AA89BB89E889F9898C9185FD03C037
:10045000808186FD0DC00FB607FCF7CF8C9185FF1C
:10046000F2CF808185FFEDCFCE010E94AC01E9CFB4
:10047000DF91CF910895CF92DF92EF92FF920F9389
:100480001F93CF93DF9300D0CDB7DEB769834A8344
:10049000880F991F0091C6021091C702000F111F0B
:1004A000E0E7F2E09F01205732402017310714F4B3
:1004B0001192F8CF2981FC01E059FD4F21838A81F7
:1004C000808360E08091C4020E94870010161106AC
:1004D00004F501501109F801E059FD4FE080D0907A
:1004E000C202C090C00288E0F82E6E2D661F6627FB
:1004F000661F8C2D0E948700EE0C61E08D2D0E94FE
:10050000870060E08D2D0E948700FA94F110EDCFF6
:10051000DDCF61E08091C4020F900F90DF91CF9109
:100520001F910F91FF90EF90DF90CF900C94870078
:10053000EF92FF920F931F93CF937C018C0183E086
:10054000000F111F8A95E1F700581D4FC1E0F80117
:1005500011928F0140E06C2FC7010E943B02CF5FD8
:10056000C930A9F7CF911F910F91FF90EF90089597
:10057000BF92CF92DF92EF92FF920F931F93CF9390
:10058000DF93C0E7D2E020E0C22E21E0D22EBB24D0
:10059000B39430E8E32EF12C10E000E08091C60225
:1005A0009091C70218161906D4F4C701002E02C094
:1005B000959587950A94E2F72889F801EE0FFF1FB9
:1005C000EC0DFD1D4081518141305105F9F4822B24
:1005D000888B48896B2D90E080E00E943B020F5F82
:1005E0001F4F08301105D1F62196B39480E1C80E53
:1005F000D11C89E0B812D0CFDF91CF911F910F911C
:10060000FF90EF90DF90CF90BF9008958095822368
:10061000DFCFFC0101900020E9F73197AF01481BC3
:10062000590BBC0183ED91E00C942E01CF93DF9325
:10063000CDB7DEB7A1970FB6F894DEBF0FBECDBF22
:1006400019A2805D88A3CE0180960E940903A1961D
:100650000FB6F894DEBF0FBECDBFDF91CF910895E6
:10066000CF92DF92EF92FF920F931F93CF93DF937E
:100670006C017B018A01E901FC0183E0EE0FFF1FA1
:100680008A95E1F7E60FF71FEE0FFF1FE050FF4FCF
:1006900011821082FA0123E0EE0FFF1F2A95E1F785
:1006A000EC0FFD1FEE0FFF1FE050FF4F81E090E0C9
:1006B000918380830E94B80282E991E00E9409033D
:1006C0008FE991E00E940903C6010E94160384EAA3
:1006D00091E00E940903C7010E94160386EA91E097
:1006E0000E940903C8010E94160384EA91E00E9457
:1006F0000903CE010E9416038CEA91E00E940903CF
:100700008EEA91E0DF91CF911F910F91FF90EF90D2
:10071000DF90CF900C9409031F920F920FB60F92A7
:1007200011242F933F938F939F93AF93BF93809107
:10073000CB019091CC01A091CD01B091CE0130912F
:10074000CA0123E0230F2D3758F50196A11DB11DD5
:100750002093CA018093CB019093CC01A093CD014B
:10076000B093CE018091CF019091D001A091D101A1
:10077000B091D2010196A11DB11D8093CF0190933C
:10078000D001A093D101B093D201BF91AF919F91BD
:100790008F913F912F910F900FBE0F901F90189542
:1007A00026E8230F0296A11DB11DD2CF1F920F92F2
:1007B0000FB60F9211242F933F934F935F936F9334
:1007C0007F938F939F93AF93BF93EF93FF9383EDAB
:1007D00091E00E94AC01FF91EF91BF91AF919F9189
:1007E0008F917F916F915F914F913F912F910F90DA
:1007F0000FBE0F901F9018951F920F920FB60F9279
:1008000011242F938F939F93EF93FF93E091E30134
:10081000F091E4018081E091E901F091EA0182FD2B
:100820001BC090818091EC018F5F8F732091ED014F
:10083000821741F0E091EC01F0E0ED52FE4F958F10
:100840008093EC01FF91EF919F918F912F910F90E9
:100850000FBE0F901F9018958081F4CF90E0FC019F
:10086000EC55FF4F249180579F4FFC0184918823C2
:1008700099F090E0880F991FFC01EA57FF4FA5916E
:10088000B491FC01E458FF4F859194918FB7F8948F
:10089000EC91E22BEC938FBF0895CF93DF931092EE
:1008A000D6011092D50188EE93E0A0E0B0E08093ED
:1008B000D7019093D801A093D901B093DA0184E8CD
:1008C00091E09093D4018093D30185EC90E09093D4
:1008D000E0018093DF0184EC90E09093E20180934B
:1008E000E10180EC90E09093E4018093E30181ECDE
:1008F00090E09093E6018093E50182EC90E0909384
:10090000E8018093E70186EC90E09093EA01809300
:10091000E9011092EC011092ED011092EE0110929B
:10092000EF01CCE0D0E0D093C102C093C0028BE0D5
:1009300090E09093C3028093C2028AE090E090938B
:10094000C5028093C40281E090E09093C702809337
:10095000C6028CE00E942E048091C2020E942E04E6
:100960008091C4020E942E0461E08091C4020E9422
:100970008700D093C102C093C002E0E8F2E0119278
:1009800082E0E03CF807D9F7D0E0C0E08091C602F1
:100990009091C702C817D90774F540E06FE0CE0107
:1009A0000E943B028091C6029091C702C817D907E6
:1009B0002CF447E06BE0CE010E943B0240E069E08E
:1009C000CE010E943B028091C6029091C702C817D7
:1009D000D9071CF4CE010E9498028091C602909122
:1009E000C702C817D9072CF440E06CE0CE010E9482
:1009F0003B022196CBCFDF91CF910895789484B5B7
:100A0000826084BD84B5816084BD85B5826085BD0A
:100A100085B5816085BD80916E00816080936E0098
:100A2000109281008091810082608093810080918A
:100A3000810081608093810080918000816080933B
:100A400080008091B10084608093B1008091B000FB
:100A500081608093B00080917A00846080937A00F6
:100A600080917A00826080937A0080917A00816020
:100A700080937A0080917A00806880937A00109247
:100A8000C100E091E301F091E40182E08083E09114
:100A9000DF01F091E0011082E091E101F091E201CB
:100AA0008FEC80831092EB01E091E701F091E80177
:100AB00086E08083E091E501F091E601808180612C
:100AC0008083E091E501F091E60180818860808378
:100AD000E091E501F091E601808180688083E091FA
:100AE000E501F091E60180818F7D80838091C602CF
:100AF0009091C7021816190634F441E06CE090E0BA
:100B000080E00E943B028091C6029091C7021816B5
:100B1000190634F448E06AE090E080E00E943B026D
:100B20008091C6029091C7021816190624F490E02D
:100B300080E00E9498020E94B80281EB91E00E943E
:100B400009038EEA91E00E9409030E94F80024E064
:100B500030E043E050E064E070E081E090E00E942B
:100B600030030E94F80023E030E044E050E063E00E
:100B700070E086E090E00E943003FFCFEE0FFF1F91
:0C0B80000590F491E02D0994F894FFCF4B
:100B8C000100010001000100010001000100010051
:100B9C000100010001000100010001000100010041
:100BAC000000000000000000000000000000000039
:100BBC000000000000000000000000000000000029
:100BCC000000000000000000000000000000000019
:100BDC000000000000000000000000000000000009
:100BEC0001000100010001000100010001000100F1
:100BFC0001000100010001000100010001000100E1
:100C0C0000000000CE012E015B011B028C016A0169
:100C1C007E014D6F76696D69656E746F3A20004484
:100C2C0065205B002C005D2061205B005D000D0ADF
:100C3C00005461626C65726F20696E696369616CE6
:0A0C4C00206361726761646F2E007F
:00000001FF
